:020000040800F2
:1000000000300020BD320008C5310008C7310008AB
:10001000C9310008CB310008CD31000800000000D4
:10002000000000000000000000000000CF310008C8
:10003000D131000800000000D3310008D53100089C
:100040000D3300080D3300080D3300080D33000890
:100050000D3300080D3300080D3300080D33000880
:100060000D3300080D3300080D3300080D33000870
:100070000D3300080D3300080D3300080D33000860
:100080000D3300080D3300080D3300080D33000850
:100090000D3300080D3300080D3300080D33000840
:1000A000DD3100080D3300080D3300080D33000862
:1000B0000D330008ED310008000000000D3300088A
:1000C0000D33000800000000000000000D330008A0
:1000D000000000000D330008FD3100080D3300085A
:1000E0000D3200080D330008000000000000000081
:1000F0000000000000000000000000000000000000
:1001000000000000000000000000000000000000EF
:1001100000000000000000000D3300080D3300084F
:1001200000000000000000000000000000000000CF
:1001300000000000000000000000000000000000BF
:100140000D3300080D330008000000000D330008D7
:100150000D3300080D3300080D3300080D3300087F
:100160000D3300080D3300080000000000000000FF
:10017000000000000000000000000000000000007F
:08018000000000000D3300082F
:1001900010B5054C237833B9044B13B10448AFF3C1
:1001A00000800123237010BDDC010020000000004E
:1001B0009C5D000808B5034B1BB103490348AFF32E
:1001C000008008BD00000000E00100209C5D0008E8
:1001D00081F0004102E000BF83F0004330B54FEAF8
:1001E00041044FEA430594EA050F08BF90EA020F65
:1001F0001FBF54EA000C55EA020C7FEA645C7FEAF8
:10020000655C00F0E2804FEA5454D4EB5555B8BF1A
:100210006D420CDD2C4480EA020281EA030382EA8B
:10022000000083EA010180EA020281EA0303362D1D
:1002300088BF30BD11F0004F4FEA01314FF4801CF0
:100240004CEA113102D0404261EB410113F0004F02
:100250004FEA03334CEA133302D0524263EB4303B9
:1002600094EA050F00F0A780A4F10104D5F1200E57
:100270000DDB02FA0EFC22FA05F2801841F10001B2
:1002800003FA0EF2801843FA05F359410EE0A5F186
:1002900020050EF1200E012A03FA0EFC28BF4CF0B7
:1002A000020C43FA05F3C01851EBE37101F000456D
:1002B00007D54FF0000EDCF1000C7EEB00006EEB7A
:1002C0000101B1F5801F1BD3B1F5001F0CD3490804
:1002D0005FEA30004FEA3C0C04F101044FEA44525B
:1002E00012F5800F80F09A80BCF1004F08BF5FEAE2
:1002F000500C50F1000041EB045141EA050130BDC2
:100300005FEA4C0C404141EB010111F4801FA4F164
:100310000104E9D191F0000F04BF01460020B1FAB9
:1003200081F308BF2033A3F10B03B3F120020CDAF1
:100330000C3208DD02F1140CC2F10C0201FA0CF0CF
:1003400021FA02F10CE002F11402D8BFC2F1200C34
:1003500001FA02F120FA0CFCDCBF41EA0C019040EA
:10036000E41AA2BF01EB0451294330BD6FEA040433
:100370001F3C1CDA0C340EDC04F11404C4F120021E
:1003800020FA04F001FA02F340EA030021FA04F330
:1003900045EA030130BDC4F10C04C4F1200220FA87
:1003A00002F001FA04F340EA0300294630BD21FAC5
:1003B00004F0294630BD94F0000F83F4801306BF8B
:1003C00081F480110134013D4EE77FEA645C18BF7F
:1003D0007FEA655C29D094EA050F08BF90EA020F16
:1003E00005D054EA000C04BF1946104630BD91EA0E
:1003F000030F1EBF0021002030BD5FEA545C05D111
:100400004000494128BF41F0004130BD14F580044F
:100410003CBF01F5801130BD01F0004545F0FE41C3
:1004200041F470014FF0000030BD7FEA645C1ABFF8
:10043000194610467FEA655C1CBF0B46024650EA2F
:10044000013406BF52EA033591EA030F41F400215B
:1004500030BD00BF90F0000F04BF0021704730B5E1
:100460004FF4806404F132044FF000054FF00001B6
:1004700050E700BF90F0000F04BF0021704730B577
:100480004FF4806404F1320410F0004548BF40424C
:100490004FF000013EE700BF42004FEAE2014FEAA1
:1004A00031014FEA02701FBF12F07F4393F07F4F7C
:1004B00081F06051704732F07F4208BF704793F07F
:1004C0007F4F04BF41F40021704730B54FF4607492
:1004D00001F0004521F000411CE700BF50EA010295
:1004E00008BF704730B54FF000050AE050EA01023E
:1004F00008BF704730B511F0004502D5404261EBAE
:1005000041014FF4806404F132045FEA915C3FF4EE
:10051000D8AE4FF003025FEADC0C18BF03325FEA8B
:10052000DC0C18BF033202EBDC02C2F1200300FA3C
:1005300003FC20FA02F001FA03FE40EA0E0021FA61
:1005400002F11444BDE600BF034613F8012B002A54
:10055000FBD1181A013870470000000000000000AD
:1005600001F0FF01102A2BDB10F0070F08D010F864
:10057000013B013A8B422DD010F0070F42B3F6D168
:10058000F0B441EA012141EA014122F007047FF081
:1005900000070023F0E80256083C85EA010586EAD8
:1005A000010685FA47F5A3FA87F586FA47F6A5FA14
:1005B00087F68EB9EED1F0BC01F0FF0102F0070220
:1005C00032B110F8013B013A83EA010313B1F8D1CB
:1005D0000020704701387047002D06BF35460338AC
:1005E000073815F0010F07D1013015F4807F02BFE5
:1005F000013015F4C03F0130F0BC0138704700BF36
:1006000070B54FF0FF0C4CF4E06C1CEA11541DBFA8
:100610001CEA135594EA0C0F95EA0C0F00F0DEF873
:100620002C4481EA030621EA4C5123EA4C5350EA58
:10063000013518BF52EA033541F4801143F48013A9
:1006400038D0A0FB02CE4FF00005E1FB02E506F03A
:100650000042E0FB03E54FF00006E1FB03569CF08F
:10066000000F18BF4EF0010EA4F1FF04B6F5007F95
:1006700064F5407404D25FEA4E0E6D4146EB060607
:1006800042EAC62141EA55514FEAC52040EA5E5090
:100690004FEACE2EB4F1FD0C88BFBCF5E06F1ED83A
:1006A000BEF1004F08BF5FEA500E50F1000041EB71
:1006B000045170BD06F0004646EA010140EA02001E
:1006C00081EA0301B4EB5C04C2BFD4EB0C0541EA40
:1006D000045170BD41F480114FF0000E013C00F355
:1006E000AB8014F1360FDEBF002001F0004170BD79
:1006F000C4F10004203C35DA0C341BDC04F1140492
:10070000C4F1200500FA05F320FA04F001FA05F21D
:1007100040EA020001F0004221F0004110EBD370EA
:1007200021FA04F642EB06015EEA430E08BF20EA16
:10073000D37070BDC4F10C04C4F1200500FA04F3B9
:1007400020FA05F001FA04F240EA020001F000414B
:1007500010EBD37041F100015EEA430E08BF20EABE
:10076000D37070BDC4F1200500FA05F24EEA020E06
:1007700020FA04F301FA05F243EA020321FA04F035
:1007800001F0004121FA04F220EA020000EBD370EC
:100790005EEA430E08BF20EAD37070BD94F0000FEC
:1007A0000FD101F00046400041EB010111F4801F20
:1007B00008BF013CF7D041EA060195F0000F18BFD1
:1007C000704703F00046520043EB030313F4801F0D
:1007D00008BF013DF7D043EA0603704794EA0C0FC7
:1007E0000CEA135518BF95EA0C0F0CD050EA4106DD
:1007F00018BF52EA4306D1D181EA030101F000415A
:100800004FF0000070BD50EA410606BF1046194681
:1008100052EA430619D094EA0C0F02D150EA01368D
:1008200013D195EA0C0F05D152EA03361CBF1046CE
:1008300019460AD181EA030101F0004141F0FE416D
:1008400041F470014FF0000070BD41F0FE4141F4F1
:10085000780170BD70B54FF0FF0C4CF4E06C1CEAF1
:1008600011541DBF1CEA135594EA0C0F95EA0C0FA6
:1008700000F0A7F8A4EB050481EA030E52EA033561
:100880004FEA013100F088804FEA03334FF0805582
:1008900045EA131343EA12634FEA022245EA1115AF
:1008A00045EA10654FEA00260EF000419D4208BF60
:1008B000964244F1FD0404F5407402D25B084FEA0D
:1008C0003202B61A65EB03055B084FEA32024FF4B9
:1008D00080104FF4002CB6EB020E75EB030E22BF16
:1008E000B61A754640EA0C005B084FEA3202B6EBD6
:1008F000020E75EB030E22BFB61A754640EA5C0085
:100900005B084FEA3202B6EB020E75EB030E22BF14
:10091000B61A754640EA9C005B084FEA3202B6EB15
:10092000020E75EB030E22BFB61A754640EADC00D4
:1009300055EA060E18D04FEA051545EA16754FEA36
:1009400006164FEAC30343EA52734FEAC2025FEA54
:100950001C1CC0D111F4801F0BD141EA00014FF0E3
:1009600000004FF0004CB6E711F4801F04BF0143B4
:100970000020B4F1FD0C88BFBCF5E06F3FF6AFAED0
:10098000B5EB030C04BFB6EB020C5FEA500C50F160
:10099000000041EB045170BD0EF0004E4EEA1131E3
:1009A00014EB5C04C2BFD4EB0C0541EA045170BDEA
:1009B00041F480114FF0000E013C90E645EA060E2E
:1009C0008DE60CEA135594EA0C0F08BF95EA0C0F5C
:1009D0003FF43BAF94EA0C0F0AD150EA01347FF4A4
:1009E00034AF95EA0C0F7FF425AF104619462CE77B
:1009F00095EA0C0F06D152EA03353FF4FDAE1046DE
:100A0000194622E750EA410618BF52EA43067FF42E
:100A1000C5AE50EA41047FF40DAF52EA43057FF4BE
:100A2000EBAE12E74FF0FF3C06E000BF4FF0010CC9
:100A300002E000BF4FF0010C4DF804CD4FEA410C2D
:100A40007FEA6C5C4FEA430C18BF7FEA6C5C1BD0FA
:100A500001B050EA410C0CBF52EA430C91EA030F7B
:100A600002BF90EA020F0020704710F1000F91EAD8
:100A7000030F58BF994208BF90422CBFD8176FEAA6
:100A8000E37040F0010070474FEA410C7FEA6C5C74
:100A900002D150EA013C07D14FEA430C7FEA6C5C7B
:100AA000D6D152EA033CD3D05DF8040B704700BFA7
:100AB0008446104662468C461946634600E000BFF5
:100AC00001B5FFF7B7FF002848BF10F1000F01BDC7
:100AD0004DF808EDFFF7F4FF0CBF012000205DF892
:100AE00008FB00BF4DF808EDFFF7EAFF34BF012017
:100AF00000205DF808FB00BF4DF808EDFFF7E0FFB0
:100B000094BF012000205DF808FB00BF4DF808ED00
:100B1000FFF7CEFF94BF012000205DF808FB00BF67
:100B20004DF808EDFFF7C4FF34BF012000205DF849
:100B300008FB00BF4FEA410C7FEA6C5C02D150EA2F
:100B4000013C0AD14FEA430C7FEA6C5C02D152EAC5
:100B5000033C02D14FF0000070474FF00100704796
:100B60004FEA410212F5001215D211D56FF47873D5
:100B7000B3EB625212D94FEAC12343F0004343EA78
:100B8000505311F0004F23FA02F018BF4042704753
:100B90004FF00000704750EA013005D111F00040DD
:100BA00008BF6FF0004070474FF00000704700BF73
:100BB00010B504460E4B18784FF47A73B3FBF0F37C
:100BC0000C4A1068B0FBF3F000F0A0F868B90F2CE5
:100BD00001D901200AE0002221464FF0FF3000F049
:100BE00055F8034B5C60002000E0012010BD00BF01
:100BF000000000200800002008B5074A136843F0F1
:100C000010031360032000F02FF80020FFF7D0FF3F
:100C100002F046FA002008BD00200240034A116895
:100C2000034B1B780B441360704700BF1802002071
:100C300000000020014B1868704700BF1802002018
:100C400038B50446FFF7F6FF0546B4F1FF3F02D082
:100C5000044B1B781C44FFF7EDFF401BA042FAD366
:100C600038BD00BF00000020074AD36823F4E063CA
:100C70001B041B0C000200F4E060184340F0BF604E
:100C800040F40030D060704700ED00E030B4174B06
:100C9000DB68C3F30223C3F10704042C28BF042438
:100CA0001D1D062D18D9033B4FF0FF3505FA04F43E
:100CB00021EA0401994005FA03F322EA03031943E8
:100CC00000280BDB0901C9B200F1604000F561406A
:100CD00080F8001330BC70470023E5E700F00F00F8
:100CE0000901C9B2024B1954F4E700BF00ED00E05E
:100CF00014ED00E000F01F02400901239340024A76
:100D000042F82030704700BF00E100E00138B0F148
:100D1000807F0AD2064B5860064AF02182F82310E1
:100D20000020986007221A6070470120704700BFBA
:100D300010E000E000ED00E008B590F82130022B53
:100D400003D004238363012008BD0268136823F0E5
:100D50000E0313600268136823F001031360036C31
:100D6000C16B012202FA03F34B6080F821200023BB
:100D700080F82030436B13B198470020E4E700204F
:100D8000E2E70000F0B482B0002336E0032400E084
:100D90000024B4403C430235584E46F82540584C98
:100DA0002568D44304EA05064F6817F4803F01D054
:100DB00042EA0506524D2E606D6804EA05064F684A
:100DC00017F4003F01D042EA05064D4D6E60AD6854
:100DD00004EA05064F6817F4801F01D042EA0506B1
:100DE000474DAE60ED682C404E6816F4001F01D0F0
:100DF00042EA0504424AD46001330A6832FA03F435
:100E000078D001249C402240F6D04D68022D01D0BC
:100E1000122D10D1DE08083650F826C003F0070561
:100E2000AF000F25BD402CEA050C0D69BD4045EA19
:100E30000C0540F8265006685F000325BD40ED43D1
:100E400005EA060C4E6806F00306BE4046EA0C06AC
:100E500006604E6806F1FF3CBCF1010F03D9112E6C
:100E600001D0122E10D1866805EA060CCE68BE406D
:100E700046EA0C068660466826EA04044E68C6F315
:100E800000169E4026434660C46825408C68BC40DE
:100E90002C43C4604C6814F0805FADD0194CA56938
:100EA00045F00105A561A46904F001040194019CC9
:100EB0009D08AE1C114C54F8267003F00304A600E4
:100EC0000F24B44027EA0407B0F1904F3FF460AF1D
:100ED0000D4CA0420AD004F58064A04208D004F56D
:100EE0008064A0423FF452AF052452E7012450E74A
:100EF00002244EE702B0F0BC704700BF0000014082
:100F00000004014000100240000400480369194237
:100F100001D100207047012070470AB981627047F3
:100F2000816170477047000008B5054B5B6903425B
:100F300000D108BD024B5861FFF7F4FFF9E700BF8D
:100F400000040140002800F0F58270B582B004462C
:100F5000036813F0010F3BD0B54B5B6803F00C0343
:100F6000042B1ED0B24B5B6803F00C03082B13D08C
:100F70006368B3F5803F68D0002B40F0928003F1A6
:100F8000804303F504331A6822F480321A601A6829
:100F900022F480221A605DE0A54B5B6813F4803F69
:100FA000E6D04FF4003393FAA3F3A14B19684FF442
:100FB000003393FAA3F3B3FA83F303F01F03012280
:100FC00002FA03F30B4203D06368002B00F0B482F3
:100FD000236813F0020F00F0C680954B5B6813F096
:100FE0000C0F00F09C80924B5B6803F00C03082B05
:100FF00000F08F802369002B00F0F380012292FA29
:10100000A2F3B3FA83F303F1845303F584139B0033
:101010001A60FFF70FFE0546022393FAA3F3844BF1
:101020001968022393FAA3F3B3FA83F303F01F03BF
:10103000012202FA03F30B4240F0C480FFF7FAFDED
:10104000401B0228E8D9032083E2794A136843F45D
:1010500080331360764AD36A23F00F03A1680B43F1
:10106000D3626368002B36D0FFF7E4FD05464FF4EA
:10107000003393FAA3F36E4B19684FF4003393FADD
:10108000A3F3B3FA83F303F01F03012202FA03F37D
:101090000B429DD1FFF7CEFD401B6428E7D903200A
:1010A00057E2B3F5A02F09D0614B1A6822F48032C1
:1010B0001A601A6822F480221A60CBE703F1804399
:1010C000A3F53C331A6842F480221A601A6842F48D
:1010D00080321A60BEE7FFF7ADFD05464FF40033DE
:1010E00093FAA3F3524B19684FF4003393FAA3F326
:1010F000B3FA83F303F01F03012202FA03F30B4256
:101100003FF466AFFFF796FD401B6428E6D9032045
:101110001FE2474B5B6813F4803F7FF46BAF022301
:1011200093FAA3F3424B1968022393FAA3F3B3FA99
:1011300083F303F01F03012202FA03F30B4204D0EE
:101140002369934201D0012003E23948036823F068
:10115000F8036169F82292FAA2F2B2FA82F201FA75
:1011600002F213430360236813F0080F00F08C8031
:10117000A369002B60D0012191FAA1F2B2FA82F2A8
:101180002C4B13449B001960FFF754FD05460223C6
:1011900093FAA3F293FAA3F293FAA3F2244A516AC0
:1011A00093FAA3F3B3FA83F303F01F03012202FAC5
:1011B00003F30B4268D1FFF73DFD401B0228E6D93F
:1011C0000320C6E11A48036823F0F8036169F82296
:1011D00092FAA2F2B2FA82F201FA02F21343036027
:1011E000C1E7012393FAA3F3B3FA83F303F1845322
:1011F00003F584139B0000221A60FFF71BFD0546D0
:10120000022393FAA3F30A4B1968022393FAA3F378
:10121000B3FA83F303F01F03012202FA03F30B4234
:10122000A1D0FFF707FD401B0228E9D9032090E178
:101230000010024020819010012292FAA2F2B2FA2C
:1012400082F2C04B13449B0000221A60FFF7F2FCAD
:101250000546022393FAA3F293FAA3F293FAA3F2B8
:10126000B94A516A93FAA3F3B3FA83F303F01F0365
:10127000012202FA03F30B4206D0FFF7DBFC401B0E
:101280000228E6D9032064E1236813F0040F00F07C
:10129000B380AD4BDB6913F0805F20D1AA4BDA69D4
:1012A00042F08052DA61DB6903F080530193019BC5
:1012B0000125A64B1B6813F4807F12D0E368012B35
:1012C00023D073BB03F1804303F504331A6A22F081
:1012D00001021A621A6A22F004021A621AE0002558
:1012E000E7E79A4A136843F480731360FFF7A2FCA0
:1012F0000646964B1B6813F4807FDFD1FFF79AFCFC
:10130000801B6428F5D9032023E18F4A136A43F038
:1013100001031362E368002B41D0FFF78BFC064604
:101320002BE0052B09D0884B1A6A22F001021A62C1
:101330001A6A22F004021A62ECE7834B1A6A42F03E
:1013400004021A621A6A42F001021A62E2E77E4B54
:10135000196A022393FAA3F3B3FA83F303F01F038A
:10136000012202FA03F3194245D1FFF763FC801B07
:1013700041F28833984200F2E180022393FAA3F20B
:1013800093FAA3F3B3FA83F35B0943F00203022B4E
:10139000DDD0022393FAA3F36B4B596AD9E7FFF729
:1013A00049FC064615E0684B196A022393FAA3F339
:1013B000B3FA83F303F01F03012202FA03F3194285
:1013C00019D0FFF737FC801B41F28833984200F2B6
:1013D000B780022393FAA3F293FAA3F3B3FA83F349
:1013E0005B0943F00203022BDDD0022393FAA3F33F
:1013F000554B596AD9E7B5BBE369002B00F0A880CB
:10140000514A526802F00C02082A00F0A480022B14
:101410002FD04FF0807393FAA3F3B3FA83F303F161
:10142000845303F584139B0000221A60FFF702FC2B
:1014300004464FF0007393FAA3F3434B19684FF03F
:10144000007393FAA3F3B3FA83F303F01F030122AB
:1014500002FA03F319426BD0FFF7ECFB001B0228E2
:10146000E7D9032075E0384AD36923F08053D3616C
:10147000C2E74FF0807393FAA3F3B3FA83F303F157
:10148000845303F584139B0000221A60FFF7D2FBFC
:1014900005464FF0007393FAA3F32B4B19684FF0F6
:1014A000007393FAA3F3B3FA83F303F01F0301224B
:1014B00002FA03F3194206D0FFF7BCFB401B0228D7
:1014C000E7D9032045E020494B6823F47413626A8E
:1014D000206A024313434B604FF0807393FAA3F3E7
:1014E000B3FA83F303F1845303F584139B000122C1
:1014F0001A60FFF79FFB04464FF0007393FAA3F3C3
:10150000114B19684FF0007393FAA3F3B3FA83F306
:1015100003F01F03012202FA03F3194206D1FFF779
:1015200089FB001B0228E7D9032012E0002010E00D
:1015300000200EE00120704701200AE0032008E0AF
:10154000032006E02081901000100240007000404F
:10155000002002B070BD0120FBE700BF10B4174BA4
:101560005C6804F00C03082B26D104F470124FF4CD
:10157000701393FAA3F3B3FA83F322FA03F3104937
:10158000C85C0E4BDB6A03F00F030F2292FAA2F243
:10159000B2FA82F2D3400B441A7C14F4803F05D196
:1015A000084B03FB00F05DF8044B7047064BB3FBA0
:1015B000F2F300FB03F0F6E70348F4E70010024003
:1015C000B85D000800093D0000127A00002800F014
:1015D000C08070B50446614B1B6803F007038B4263
:1015E0000CD25E4A136823F007030B4313601368A1
:1015F00003F007038B4201D0012070BD236813F074
:10160000020F06D0564A536823F0F003A068034344
:1016100053600D46236813F0010F5AD06368012B05
:101620002DD0022B40D0022292FAA2F24C4A10682E
:10163000022292FAA2F2B2FA82F202F01F02012111
:1016400001FA02F2104200F0868045494A6822F011
:10165000030213434B60FFF7EDFA0646404B5B680D
:1016600003F00C036268B3EB820F32D0FFF7E2FAAB
:10167000801B41F288339842F0D90320BDE74FF434
:10168000003292FAA2F2364A10684FF4003292FA0F
:10169000A2F2B2FA82F202F01F02012101FA02F272
:1016A0000242D2D10120A8E74FF0007292FAA2F2D2
:1016B0002B4A10684FF0007292FAA2F2B2FA82F24C
:1016C00002F01F02012101FA02F21042BDD10120F5
:1016D00093E7224B1B6803F00703AB420CD91F4A68
:1016E000136823F007032B431360136803F0070309
:1016F000AB4201D0012080E7236813F0040F06D02D
:10170000174A536823F4E063E1680B43536023688E
:1017100013F0080F07D0124A536823F4605321696D
:1017200043EAC1035360FFF719FF0D4B5B6803F0F9
:10173000F003F02292FAA2F2B2FA82F2D340094AFE
:10174000D35CD840084B18600020FFF731FA002026
:1017500053E70120704701204FE700BF00200240FF
:1017600000100240D85D000808000020014B1868F6
:10177000704700BF0800002008B5FFF7F7FF074BD0
:101780005B6803F4E0634FF4E06292FAA2F2B2FA0B
:1017900082F2D340024AD35CD84008BD0010024018
:1017A000E85D000808B5FFF7E1FF074B5B6803F44D
:1017B00060534FF4605292FAA2F2B2FA82F2D3402E
:1017C000024AD35CD84008BD00100240E85D000822
:1017D000F0B583B00446036813F4803F44D0644BF3
:1017E000DB6913F0805F79D1614BDA6942F0805296
:1017F000DA61DB6903F080530193019B01255D4BA6
:101800001B6813F4807F6BD0594B1B6A13F4407331
:1018100021D0626802F440729A421CD05448016A96
:1018200021F440764FF4803393FAA3F2B2FA82F2B5
:10183000514F3A4492004FF0010CC2F800C093FAA5
:10184000A3F3B3FA83F33B449B0000221A600662C1
:1018500011F0010F58D1464A136A23F440736168AE
:101860000B431362002D7AD1236813F0010F06D0C9
:101870003F4A136B23F00303A1680B4313632368F0
:1018800013F0200F06D03A4A136B23F01003E168DF
:101890000B431363236813F0800F06D0344AD36AD6
:1018A00023F4F87321690B43D362236813F4805F38
:1018B00006D02F4A136B23F4807361690B431363C3
:1018C000236813F4804F51D0294A136B23F48053BB
:1018D000A1690B431363002003B0F0BD00258EE720
:1018E000244A136843F480731360FFF7A3F9064694
:1018F000204B1B6813F4807F86D1FFF79BF9801B78
:101900006428F5D90320E7E7FFF794F9064614E0C9
:10191000174B196A022393FAA3F3B3FA83F303F084
:101920001F03012202FA03F30B4294D1FFF782F95D
:10193000801B41F28833984216D8022393FAA3F20F
:1019400093FAA3F3B3FA83F35B0943F00203022B88
:10195000DED0022393FAA3F3054B596ADAE7D36981
:1019600023F08053D3617FE70320B5E70020B3E77E
:1019700000100240007000400081901010B4036A13
:10198000046A24F001040462846924F0F00444EA47
:10199000021223F00A030B43826103625DF8044BD9
:1019A000704710B4036A23F0100303628469036A6A
:1019B00024F4704444EA023223F0A00343EA011302
:1019C000826103625DF8044B7047836823F0700303
:1019D00041F00701194381607047022380F83D30D0
:1019E0000268136843F001031360012380F83D305F
:1019F000002070470268D36843F00103D360026897
:101A0000136843F001031360002070470268D36835
:101A100023F00103D3600368196A41F211121142E5
:101A200008D1196A40F24442114203D11A6822F0E7
:101A300001021A6000207047704770477047704776
:101A400010B5044603681A6912F0020F11D0DA6863
:101A500012F0020F0DD06FF002021A61012303771A
:101A600003689B6913F0030F79D0FFF7E6FF0023AB
:101A7000237723681A6912F0040F12D0DA6812F083
:101A8000040F0ED06FF004021A610223237723683B
:101A90009B6913F4407F68D02046FFF7CEFF0023F8
:101AA000237723681A6912F0080F12D0DA6812F04F
:101AB000080F0ED06FF008021A6104232377236801
:101AC000DB6913F0030F57D02046FFF7B6FF002362
:101AD000237723681A6912F0100F12D0DA6812F017
:101AE000100F0ED06FF010021A61082323772368BD
:101AF000DB6913F4407F46D02046FFF79EFF0023AA
:101B0000237723681A6912F0010F03D0DA6812F004
:101B1000010F3FD123681A6912F0800F03D0DA68F1
:101B200012F0800F3DD123681A6912F4807F03D030
:101B3000DA6812F0800F3BD123681A6912F0400F67
:101B400003D0DA6812F0400F39D123681A6912F015
:101B5000200F03D0DA6812F0200F37D110BDFFF745
:101B60006BFF2046FFF76AFF81E72046FFF764FF1F
:101B70002046FFF763FF92E72046FFF75DFF204610
:101B8000FFF75CFFA3E72046FFF756FF2046FFF76D
:101B900055FFB4E76FF001021A61204601F0E4F846
:101BA000B8E76FF080021A61204600F03AF9BAE710
:101BB0006FF480721A61204600F034F9BCE76FF0D0
:101BC00040021A612046FFF73AFFBEE76FF020029D
:101BD0001A61204600F024F9C0E700000368224A99
:101BE000904206D0B0F1804F03D0A2F594329042DB
:101BF00003D123F070034A6813431B4A904212D06A
:101C0000B0F1804F0FD0A2F5943290420BD002F584
:101C10009E32904207D002F58062904203D002F5D6
:101C20008062904203D123F44073CA68134323F0C7
:101C300080034A69134303608B68C3620B68836245
:101C4000094B98420BD003F5A053984207D003F5F7
:101C50008063984203D003F58063984201D10B69F9
:101C60000363012343617047002C0140A8B110B504
:101C7000044690F83D305BB1022384F83D30211DCD
:101C80002068FFF7ABFF012384F83D30002010BD32
:101C900080F83C3001F022FAEEE70120704710B4E2
:101CA000846824F47F4442EA03230B432343836084
:101CB0005DF8044B7047000090F83C30012B00F0B9
:101CC000828010B50446012380F83C30022380F85E
:101CD0003D30026890683D4B034093600B68402B99
:101CE0005DD010D9702B40D01FD8502B4DD0602B19
:101CF00034D1CA6849682068FFF753FE6021206824
:101D0000FFF763FE2AE0102B53D008D9202B55D0C3
:101D1000302B23D130212068FFF757FE1EE0EBB9AE
:101D200000212068FFF751FE18E0B3F5805F0ED068
:101D3000B3F5005F12D1CB684A6889682068FFF765
:101D4000AEFF2268936843F48043936006E0226804
:101D5000936823F4803323F007039360012384F80E
:101D60003D30002084F83C0010BDCB684A6889688B
:101D70002068FFF794FF2268936823F4803323F0F0
:101D8000770343F077039360E8E7CA6849682068FF
:101D9000FFF7F4FD50212068FFF717FEDEE7CA6861
:101DA00049682068FFF7EAFD40212068FFF70DFE33
:101DB000D4E710212068FFF708FECFE72021206834
:101DC000FFF703FECAE70220704700BF8800FEFF4E
:101DD00090F83C30012B1FD030B4012380F83C3008
:101DE0000268536895680D4CA24210D023F070032E
:101DF0000C68234325F080048968214353600368FD
:101E00009960002380F83C30184630BC704723F4BA
:101E100070034C682343E9E702207047002C01401F
:101E20007047704770470268136823F4907313601B
:101E30000268936823F001039360202380F86A30DE
:101E4000704790F86A30DBB2202B49D1002949D085
:101E5000002A49D090F86830012B47D0012380F840
:101E600068304165A0F85820A0F85A208368B3F57F
:101E7000805F06D0A3B9036973B9FF23A0F85C3073
:101E800011E0036923B940F2FF13A0F85C300AE0C7
:101E9000FF23A0F85C3006E07F23A0F85C3002E06E
:101EA000B3F1805F12D00023C366222280F86A203B
:101EB00080F8683001688A6842F001028A6001682F
:101EC0000A6842F490720A601846704703691BB9A9
:101ED0007F23A0F85C30E6E73F23A0F85C30E2E720
:101EE0000220704701207047012070470220704790
:101EF0007047704708B5406A0023A0F85A30A0F830
:101F00005230FFF7F6FF08BD10B50446836802693A
:101F1000134342691343C269134301680868654A61
:101F2000024013430B602268536823F44053E16876
:101F30000B435360A369226A1A4321688B6823F418
:101F4000306313438B6023685B4A934215D05B4A2E
:101F5000934229D002F58062934221D01022E16998
:101F6000B1F5004F22D0082A00F2A280DFE802F08B
:101F700066727EA08AA0A0A0960002F55842126B5D
:101F800002F00302032A09D8DFE802F00204060C7B
:101F90000022E4E70422E2E70822E0E71022DEE77D
:101FA0000022DCE70222DAE70022D8E7082A42D83A
:101FB000DFE802F0051722412D4141413800FFF7CB
:101FC000DBFB6268530803EB4003B3FBF2F39BB205
:101FD000002023F00F02C3F3420313432268D360AF
:101FE00010BDFFF7DFFB6268530803EB4003B3FB50
:101FF000F2F39BB20020ECE76268530803F5740328
:1020000003F51053B3FBF2F39BB20020E1E7FFF7B7
:10201000A5FA6268530803EB4003B3FBF2F39BB2EB
:102020000020D6E76268530803F58033B3FBF2F370
:102030009BB20020CDE701200023CAE7FFF79CFBFD
:10204000636800EB5300B0FBF3F0236880B2D86004
:102050000020C5E7FFF7A6FB636800EB5300B0FB69
:10206000F3F0236880B2D8600020B9E761684A08BD
:1020700002F5F40202F59052B2FBF1F292B2DA608C
:102080000020ADE7FFF76AFA636800EB5300B0FB8E
:10209000F3F0236880B2D8600020A1E761684A08A5
:1020A00002F50042B2FBF1F292B2DA60002097E74B
:1020B000012095E7F369FFEF00380140004400403C
:1020C000436A13F0010F06D00268536823F400330B
:1020D000816A0B435360436A13F0020F06D0026813
:1020E000536823F48033C16A0B435360436A13F08F
:1020F000040F06D00268536823F48023016B0B435E
:102100005360436A13F0080F06D00268536823F443
:102110000043416B0B435360436A13F0100F06D02A
:102120000268936823F48053816B0B439360436A86
:1021300013F0200F06D00268936823F40053C16B9C
:102140000B439360436A13F0400F0AD00268536850
:1021500023F48013016C0B435360036CB3F5801FB1
:102160000BD0436A13F0800F06D00268536823F443
:102170000023816C0B43536070470268536823F45B
:10218000C003416C0B435360EBE72DE9F04105467A
:102190000F4616469846069C2B68DB6937EA030310
:1021A0000CBF01230023B3421DD1B4F1FF3FF3D094
:1021B0002CB1FEF73FFDA0EB0800A042ECD92A6845
:1021C000136823F4D07313602A68936823F0010323
:1021D0009360202385F8693085F86A30002385F8FC
:1021E0006830032000E00020BDE8F0812DE9F041D7
:1021F00082B01E4690F86930DBB2202B4ED10446E7
:102200000D46904600294ED0002A4ED090F86830F6
:10221000012B4CD0012380F868300023C3662123B2
:1022200080F86930FEF706FD0746A4F85080A4F850
:10223000528003E023682A781A850135B4F85230B9
:102240009BB2DBB1B4F85230013B9BB2A4F85230E0
:1022500000963B46002280212046FFF796FF40BBB8
:10226000A368B3F5805FE5D12369002BE2D1226832
:1022700035F8023BC3F308031385DFE700963B46BE
:10228000002240212046FFF780FF034698B9202214
:1022900084F86920002284F8682000E002231846B0
:1022A00002B0BDE8F0810123F9E70123F7E702233B
:1022B000F5E70323F3E70323F1E730B583B00446E2
:1022C0000023C366FEF7B6FC054623681B6813F0BF
:1022D000080F0ED123681B6813F0040F17D12023B9
:1022E00084F8693084F86A30002084F8680003B00C
:1022F00030BD6FF07E430093034600224FF400117F
:102300002046FFF742FF0028E4D00320EFE76FF0FC
:102310007E4300932B4600224FF480012046FFF7B6
:1023200034FF0028DBD00320E1E778B310B5044682
:1023300090F869300BB3242384F86930226813685D
:1023400023F0010313602046FFF7DEFD012813D0C0
:10235000636ABBB92268536823F4904353602268D0
:10236000936823F02A0393602268136843F0010303
:1023700013602046FFF7A1FF10BD80F8683000F021
:10238000E5FED8E72046FFF79BFEE3E70120704714
:1023900090F86930DBB2212B2ED1B0F852309BB2CD
:1023A0008BB18368B3F5805F19D0C36C5A1CC264CB
:1023B00002681B781385B0F85230013B9BB2A0F83D
:1023C0005230002070470268136823F080031360C6
:1023D0000268136843F040031360002070470369EC
:1023E000002BE2D1C36C02681B88C3F3080313857A
:1023F000C36C0233C364DEE70220704708B501688E
:102400000B6823F040030B60202380F86930FFF74E
:102410006FFD002008BDB0F85C2090F86A30DBB298
:10242000222B31D110B503689B8C9BB28168B1F52A
:10243000805F0ED0D2B2416D4C1C44651A400A70C8
:10244000B0F85A30013B9BB2A0F85A305BB1002083
:1024500010BD01690029EDD1416D1A400A80436D1C
:1024600002334365ECE70268136823F4907313604A
:102470000268936823F001039360202380F86A3098
:1024800000F0EEFB0020E3E70268936943F00803E5
:10249000936102207047000038B504460268D36992
:1024A000116813F00F0505D113F0200F02D011F0C1
:1024B000200F60D19068002D72D010F0010502D17C
:1024C00011F4907F6CD013F0010F07D011F4807FCE
:1024D00004D001201062E26E0243E26613F0020FA4
:1024E00007D035B1226802201062E26E42F0040289
:1024F000E26613F0040F07D035B1226804201062A1
:10250000E26E42F00202E26613F0080F09D011F009
:10251000200F00D12DB1226808201062E26E024324
:10252000E266E26E002A4DD013F0200F02D011F0C7
:10253000200F23D1E36E13F0080F04D123689B68AA
:1025400013F0400F26D02046FFF76DFC23689A68F1
:1025500012F0400F1AD09A6822F040029A60636E1F
:1025600083B1234A5A63606EFEF7E6FB50B3606E98
:10257000436B984726E0FFF74EFF23E02046FFF726
:102580004AFFD7E72046FFF7B4FC1BE02046FFF7E1
:10259000B0FC17E02046FFF7ACFC0023E36611E037
:1025A00013F4801F02D010F4800F0CD113F0800FB1
:1025B00002D011F0800F12D113F0400F02D011F0B1
:1025C000400F10D138BD4FF480131362202384F8DC
:1025D000693084F86A30204600F00CF8F2E72046B3
:1025E000FFF7D6FEEEE72046FFF708FFEAE700BF59
:1025F000F51E00087047000010B5064C204600F09C
:102600000DFCCC21204600F069FC4421204600F05E
:1026100065FC10BD200300200378282B01D000208A
:102620007047012070470000384B1B78834269D9FE
:1026300070B582B00D46364C04EB00142046FFF70F
:10264000EBFF034610B9184602B070BD314800F0E8
:1026500028FC03460028F6D02E4E304600F0DEFB64
:102660002146304600F0DEFCBE21304600F036FC4C
:10267000002408E0274800F040FC02AB234403F8A4
:10268000080C0134E4B2042CF4D99DF800309DF814
:10269000014043EA04241F4800F0C0FB9DF80430C9
:1026A000C3F34113032B2AD8DFE803F0020E1720EF
:1026B00007EE904AF8EEE77AB6EE007A67EE877A90
:1026C000C5ED007A0123BEE707EE904AF8EEE77AFF
:1026D000B5EE007A67EE877AF2E707EE904AF8EEF9
:1026E000E77AB4EE007A67EE877AE9E707EE904A78
:1026F000F8EEE77A9FED087A67EE877AE0E7DFED9C
:10270000077ADDE700231846704700BFF801002074
:1027100020020020200300200000803D00007F43B5
:102720002DE9F843364B1B78834264D90E46354C6D
:1027300004EB00142046FFF76FFF034600285BD030
:10274000314D284600F06AFB2146284600F06AFC1D
:10275000BE21284600F0C2FB284600F0CEFB2846EA
:1027600000F0CBFB284600F0C8FB8146284600F06D
:10277000C4FB8046284600F0C0FB0746092E09D05E
:102780000A2E2ED00B2E31D00C2E05D140F0600732
:10279000FFB201E000F09F071B4D284600F03EFB12
:1027A0002146284600F03EFC4E21284600F096FBCC
:1027B0004946284600F092FB4146284600F08EFB31
:1027C0003946284600F08AFB284600F027FB2146C0
:1027D000284600F027FC4821284600F07FFB012313
:1027E0000AE000F0BF0747F02007D5E700F0DF0759
:1027F00047F04007D0E700231846BDE8F88300BF44
:10280000F8010020200200202003002008B5024823
:1028100000F047FB08BD00BF2003002070B5FFF7A4
:10282000F5FFD8B1002401E00134E4B20C4B1B7871
:10283000A34213D90B4800EB041000230373FFF7E6
:10284000EBFE0028F0D0260106F10801054D2944D1
:102850002046FFF7E9FE35442873E5E770BD00BF69
:10286000F80100202002002010B4094B1C7884429B
:1028700000D90446002306E0064A02EB0412D25CAB
:10288000CA540133DBB2072BF6D95DF8044B70470D
:10289000F801002020020020014B1878704700BF8B
:1028A000F8010020064B03EB00131B7B2BB1044BFC
:1028B00003EB001083680B6001231846704700BFCC
:1028C000200200202DE9F04180461B4C02224FF0EF
:1028D0009041204600F0C2FB204600F095FB00240A
:1028E000A0B1164D2B7801332B70631CDFB2124E52
:1028F000134901EB0411304600F0A5FB304600F00F
:102900008CFB2B780BB93C46EAE73C46002503E0FC
:10291000FFF772FE0135EDB2AC420BD9084800EB6F
:102920000410FFF779FE0028F2D041462846FFF751
:10293000F7FEEDE7BDE8F08120030020F80100205C
:102940002002002010B58AB0002405940694079454
:1029500008940994244B5A6942F400225A615A6936
:1029600002F400220192019A5A6942F480025A61EB
:102970005A6902F480020292029A5A6942F40032C1
:102980005A615A6902F400320392039A5A6942F476
:1029900080225A615B6903F480230493049B2246DE
:1029A00022214FF09040FEF7B8FA4FF40053059300
:1029B0000E4B0693079405A90D48FEF7E3F9222371
:1029C0000593012306930794089405A94FF09040BE
:1029D000FEF7D8F9224621462820FEF757F928208D
:1029E000FEF788F90AB010BD001002400000211067
:1029F0000008004830B589B000240494059406947A
:102A000007940194029403940F4D104B2B603F23C5
:102A10006B60AC604FF6E853EB602C616C61AC61AD
:102A20002846FFF723F94FF48053049304A928465E
:102A3000FFF742F901940294039401A92846FFF795
:102A4000C7F909B030BD00BF70020020002C014062
:102A500030B589B000240494059406940794019439
:102A6000029403940E4D0F4B2B604FF6FF136B60D7
:102A7000AC6040F2E733EB602C61AC612846FFF7B5
:102A8000F5F84FF48053049304A92846FFF714F98E
:102A90000194039401A92846FFF79AF909B030BDC3
:102AA000300200200004004008B50948094B0360CB
:102AB0004FF41643436000238360C36003610C221C
:102AC00042618361C36103624362FFF72EFC08BD6C
:102AD000B00200200044004030B597B02022002111
:102AE0000DA800F04EFC00240794089409940A9461
:102AF0000B94009401940294039404940594069416
:102B000002250C95012310931023119313954FF474
:102B1000601315930CA8FEF715FA0F230793089579
:102B200009944FF480630A930B94294607A8FEF793
:102B30004DFD4FF48053009305946846FEF748FE20
:102B400017B030BD08B5FEF757F8FFF7C5FFFFF720
:102B5000F9FEFFF74FFFFFF77BFFFFF7A5FF0A4CDA
:102B600001220A492046FFF76CF90A231D22084971
:102B70002046FFF73BFB0C20FFF7A4FE054B00228D
:102B80001A705A60FEE700BFB00200209C030020CC
:102B9000FC5D0008FC01002030B585B004460D4600
:102BA0002A4B93E8030002908DF80C1002A8FDF761
:102BB000CBFC024602A9204600F0D4FB034608B92C
:102BC000042D05D0DBB1224B00229A6005B030BD48
:102BD000002222214FF09040FEF79FF901221C4B6A
:102BE0009A604FF47A7301931A490A601A4CE360B1
:102BF0002046FFF73BF82046FEF7FCFEE6E7144BC5
:102C000000229A60012222214FF09040FEF785F9C0
:102C100002A8FDF799FC6B4601AA1049204401F077
:102C200035F80C4B009A1A60019B012B0BDD013B20
:102C30000193094C019BE3602046FFF717F82046FB
:102C4000FEF7D8FEC2E701230193F2E7245E0008F5
:102C5000FC01002098030020300200201C5E0008C8
:102C600038B51F4B19781F4B5B5C0A2B0CD01F2902
:102C70002CD80131C9B21A4B19700122194B1944D1
:102C80001948FFF7DEF838BD154B5B6883B1164C69
:102C90000A231D2215492046FFF7A8FA104B0022EF
:102CA0005A601A7001220F492046FFF7CAF8EAE776
:102CB0000C4D012229460C48FFF7C3F8084C217837
:102CC0002846FFF769FF00232370DCE7044B01224D
:102CD0005A600021197003490348FFF7B2F8D2E7A0
:102CE000FC0100209C030020B00200202C5E0008A4
:102CF00030B583B0FFF792FDFFF77EFC002401E0C2
:102D00000134E4B2FFF7C8FDA0421BD911492046A7
:102D1000FFF7C8FD0028F3D069462046FFF7A4FD61
:102D20000C4B1868FDF7B8FB0B4D02460B460B49E0
:102D3000284600F08BFF642382B229460848FFF73B
:102D400055FADDE76423022206490548FFF74EFAEB
:102D500003B030BD34030020580300204C5E00084F
:102D6000B0020020585E000808B502680C4B9A4279
:102D700000D008BD0B4B9B68012B06D00A4B1B688B
:102D800033B90A48FEF742FEF3E7FFF7B1FFF0E779
:102D9000FFF7AEFF044A1368013B1360E9E700BF89
:102DA00000040040FC0100209803002030020020B5
:102DB000034B1A6800235362536A8342FCD970475D
:102DC0007002002000B587B0002302930393012313
:102DD0000493838806A941F8143D0068FDF7D2FFEB
:102DE00007B05DF804FB00B587B011230293002300
:102DF000039301230493838806A941F8143D0068D6
:102E0000FDF7C0FF07B05DF804FB838802681B0470
:102E100093617047036882889A61704710B50446D1
:102E2000FFF7F3FF2046FFF7DEFF4FF4F070FFF7E8
:102E3000BFFF2046FFF7C6FF4620FFF7B9FFA18876
:102E40002068FEF763F804464FF4CD70FFF7B0FF3B
:102E5000204610BD10B5044689B9FFF7D6FF2046BD
:102E6000FFF7C1FF3C20FFF7A3FF2046FFF7AAFFB3
:102E70000A20FFF79DFF2046FFF7A4FF10BDFFF7D4
:102E8000C4FF2046FFF7AFFF0620FFF791FF204663
:102E9000FFF798FF4020FFF78BFF2046FFF792FFD8
:102EA000ECE710B50446FFF7B0FF2046FFF79BFFA5
:102EB0000220FFF77DFF2046FFF784FF0A20FFF77F
:102EC00077FFA1882068FEF721F828B1012432207D
:102ED000FFF76EFF204610BD0024F8E770B50646E8
:102EE0000D46082405F001013046FFF7B3FF6D08D9
:102EF000631E13F0FF04F5D170BD70B506460020C7
:102F0000082544083046FFF7CCFF44EAC010C0B2A1
:102F10006B1E13F0FF05F4D170BD002383710372A3
:102F2000C37170472DE9F8430446057A3DB100208E
:102F3000A0712072E07105462846BDE8F8830E4670
:102F4000FFF76CFF814620B10023A3712372E37168
:102F5000F2E731462046FFF7C1FFC84601252F465C
:102F60002FE0012836D1402FE1D984F80690B9F13D
:102F7000000F01D101232372637A002BD7D00125E2
:102F8000DAE7A679BE420CD904EB08035B7A2B4240
:102F900014BF01260026FEB9082F07D8E771B946ED
:102FA0001AE0BE4214BF00260126F4E7B94613E03A
:102FB00004EB0802537A2B43537215E0B8F1070F64
:102FC000D1D82046FFF76DFF06462046FFF769FF80
:102FD000012EC6D08642D4D0012EE9D004EB0802DF
:102FE000537A23EA0503537231462046FFF732FF36
:102FF0000137FFB26D0015F0FF05DFD108F10108C0
:103000005FFA88F80125D9E710B50446FFF785FF78
:10301000F0212046FFF786FF10BD08B5F021FFF72D
:1030200081FF08BD70B506460D465521FFF756FFD6
:10303000002405E0295D3046FFF750FF0134E4B27B
:10304000072CF7D970BD002304E0C218527ACA5485
:103050000133DBB2072BF8D97047000070B5044686
:103060000E4615460D48FEF7B8FC2660A5802046A2
:10307000FFF7B9FE2046FFF7CDFE6420FDF7E0FD27
:103080002046FFF7C2FE6420FDF7DAFD2046FFF779
:10309000C1FEC820FDF7D4FD70BD00BF7002002046
:1030A00000B583B00C4B9A6942F001029A619A69AB
:1030B00002F001020092009ADA6942F08052DA616D
:1030C000DB6903F080530193019B0720FDF7CCFDE2
:1030D00003B05DF804FB00BF0010024000B583B0F0
:1030E0000368174A934205D0164A934215D003B09D
:1030F0005DF804FB144B9A6942F400629A619B6983
:1031000003F400630093009B002211461820FDF792
:10311000BDFD1820FDF7EEFDE9E70B4BDA6942F043
:103120000202DA61DB6903F002030193019B0022D2
:1031300011461D20FDF7AAFD1D20FDF7DBFDD6E79A
:10314000002C0140000400400010024000B589B08E
:103150000023039304930593069307930268184B87
:103160009A4202D009B05DF804FB03F5E633DA6950
:1031700042F40032DA61DA6902F400320192019A13
:103180005A6942F400325A615B6903F400330293D6
:10319000029B0C2303930223049303230693072328
:1031A000079303A94FF09040FDF7ECFD0022114674
:1031B0002620FDF76BFD2620FDF79CFDD2E700BF22
:1031C000004400407047FEE7FEE7FEE7FEE7704779
:1031D0007047704708B5FDF721FD08BD08B50248E6
:1031E000FEF72EFC08BD00BF7002002008B50248A3
:1031F000FEF726FC08BD00BF3002002008B50248DB
:10320000FFF74AF908BD00BFB002002008B54FF42F
:103210000050FDF789FE08BD08B503460B4A126849
:1032200042B10A4A106803446A46934206D8074AE4
:10323000136008BD054A06491160F2E700F068F81E
:103240000C2303604FF0FF30F3E700BF08020020BB
:10325000C00300201549D1F8883043F47003C1F849
:103260008830134B1A6842F001021A605868114AFC
:1032700002405A601A6822F0847222F480321A6086
:103280001A6822F480221A605A6822F4FE025A60F8
:10329000DA6A22F00F02DA62186B074A02401A63F8
:1032A00000229A604FF000638B60704700ED00E0F1
:1032B000001002400CC07FF8CCFC00FFDFF834D0D7
:1032C000002103E00C4B5B58435004310B480C4B7E
:1032D00042189A42F6D30B4A02E0002342F8043B1C
:1032E000094B9A42F9D3FFF7B5FF00F017F8FFF743
:1032F00029FCFEE7003000203C61000800000020AF
:10330000DC010020DC010020C0030020FEE70000FB
:10331000014B1868704700BF0C00002070B50D4EBF
:103320000D4CA41BA4100025A54209D10B4E0C4C3A
:1033300002F034FDA41BA4100025A54205D170BDE8
:1033400056F8253098470135EEE756F8253098476E
:103350000135F2E734610008346100083461000887
:103360003861000830B50024A24201D1002007E0F6
:10337000035D01340D1915F8015CAB42F4D0581B04
:1033800030BD02440346934200D1704703F8011B4D
:10339000F9E72DE9FF4755EC104B0D9FDDF830A004
:1033A000002D0E4691461946B8BF22462B4627F0FF
:1033B0002007BBBF05F100431D4600232D23B8BFE6
:1033C0001446462F0B7004D0452F00D10136022140
:1033D00000E0032103AB019302AB00933246534656
:1033E00045EC104B00F00CFD472F804602D119F040
:1033F000010F26D0462F08EB060911D198F80030AE
:10340000302B0AD10022002320462946FDF760FB1D
:1034100018B9C6F10106CAF80060DAF8003099441C
:103420000022002320462946FDF752FB38B93022FE
:10343000039B4B4505D2591C03911A70F8E7CDF850
:103440000C90039B0E9AA3EB08034046136004B054
:10345000BDE8F087F7B500290446BABF49422D23DD
:103460002B23092904F8022B437020DD0DF10703FB
:103470001F460A2691FBF6F506FB15113031092D82
:1034800003F8011C03F1FF32294609DC3031023B0D
:1034900002F8011CBB42224604D3101A03B0F0BD4F
:1034A0001346E7E713F8012B04F8012BF2E730236A
:1034B00019448370021DC170EFE700002DE9F04F41
:1034C0008DB00C46DDF8588016461F46054601F0C3
:1034D0004FFA036804931846FDF736F800230A9361
:1034E000D8F800300590073323F0070303F10802F2
:1034F00094F818A0D4F800B0C8F80020D3E900234D
:10350000C4E91223D4E9128929F000430793CDF8C6
:1035100018804FF0FF32A74BDDE90601FDF70AFBEB
:1035200070BB4FF0FF32A34BDDE90601FDF7E4FA73
:1035300030BB0022002340464946FDF7D3FA10B1C4
:103540002D2384F843309C4A9C4BBAF1470F8CBF23
:103550009046984603232BF00402236122604FF02B
:103560000009009733460BAA2146284600F0E6F9E9
:10357000013040F08D804FF0FF300DB0BDE8F08F8E
:1035800042464B4640464946FDF7D4FA10B18C4AB4
:103590008C4BDAE761684B1C4BF480620AA83ED181
:1035A000062363600023CDE9020309AB009349ECD5
:1035B000108B0DF123032260CDF804A0616828462A
:1035C000FFF7E7FE0AF0DF03472B804609D1099B8E
:1035D000D81C02DB6268934247DDAAF1020A5FFA57
:1035E0008AFABAF1650F099924D80139524604F1D3
:1035F00050000991FFF72EFF0A9A1318012A8146FD
:10360000236102DC2268D10701D5013323619DF8D3
:103610002330002BA5D02D2384F84330A1E7BAF145
:10362000670F00F07781BAF1470FBBD10029B9D1FC
:103630000123B6E7BAF1660F19D1002963680CDDE2
:10364000216113B92268D20702D501330B442361EB
:10365000099BA3654FF00009D9E713B92268D00789
:1036600001D50233F3E70123F1E74FF0670ADDE903
:103670000932934205DB22682361D107E8D5013383
:10368000E5E7002BD4BFC3F1020301231344DEE7B7
:1036900023685A0507D42369424631462846B8476D
:1036A00001302BD167E7BAF1650F40F2DC800022D0
:1036B0000023D4E91201FDF70BFA002833D00123CF
:1036C000414A31462846B84701303FF454AFDDE95E
:1036D00009239A4202DB2368D8070FD5DDE90423CA
:1036E00031462846B84701303FF445AF4FF0000857
:1036F00004F11A090A9B013B434509DC23689B0737
:1037000000F10381E0680B9B9842B8BF184634E78C
:1037100001234A4631462846B84701303FF42BAFD3
:1037200008F10108E6E7099B002B2BDC0123264A60
:1037300031462846B84701303FF41DAF099B23B9F5
:103740000A9B13B92368D907D8D5DDE9042331468C
:103750002846B84701303FF40EAF4FF0000904F19E
:103760001A0A099B5B424B4501DC0A9B94E7012343
:10377000524631462846B84701303FF4FCAE09F1C5
:103780000109EEE70A9AA36D9A42A8BF1A46002AD9
:10379000914607DD1346314642462846B847013078
:1037A0003FF4E9AE04F11A034FF0000B29EAE9797E
:1037B000069315E0FFFFEF7F605E00085C5E000887
:1037C000685E0008645E0008C35F00080123069A73
:1037D00031462846B84701303FF4CDAE0BF1010B1E
:1037E000D4F858A0AAEB09035B45EFDCDDE9092317
:1037F0009A42D04415DB2368DA0712D40A9B099950
:10380000A3EB0A02A3EB010A9245A8BF9246BAF1C4
:10381000000F0EDC4FF000082AEAEA7A04F11A09D8
:1038200019E0DDE9042331462846B8470130E5D1E7
:10383000A1E65346424631462846B8470130E9D111
:1038400099E601234A4631462846B84701303FF4FD
:1038500092AE08F10108DDE909239B1AA3EB0A03E4
:103860004345EEDC4AE70A9A012A01DCDB073AD538
:103870000123424631462846B84701303FF47BAE2B
:10388000DDE9042331462846B847013008F1010834
:103890003FF471AE0A9B002203F1FF3AD4E9120112
:1038A0000023FDF715F9C8B953464246314628466C
:1038B000B84701300ED15EE6012352463146284614
:1038C000B84701303FF457AE08F101080A9B013BAD
:1038D0004345F1DC4B4604F15002DEE64FF00008B0
:1038E00004F11A0AF2E70123DFE701234A463146D1
:1038F0002846B84701303FF43EAE08F10108E368BE
:103900000B9A9B1A4345F0DCFCE64FF0000804F1EB
:103910001909F4E700293FF48BAE0023CDE9020337
:1039200009AB009349EC108B2260CDF804A00DF197
:1039300023032846FFF72DFD804648E62DE9F04792
:1039400091461F468A680B69DDF820809342B8BF14
:103950001346C9F8003091F8432006460C4612B1D0
:103960000133C9F800302368990642BFD9F8003006
:103970000233C9F80030256815F0060507D104F1B7
:10398000190AE368D9F800209B1AAB4228DC94F8A6
:1039900043302268003318BF012392062DD404F16E
:1039A000430239463046C047013020D02368E568DD
:1039B000D9F8002003F00603042B08BFAD1AA36852
:1039C00022690CBF25EAE57500259342C4BF9B1A06
:1039D000ED184FF000091A344D451AD1002008E0C7
:1039E0000123524639463046C047013003D14FF0DB
:1039F000FF30BDE8F0870135C3E7E1185A1C3020DD
:103A000081F84300224494F8451082F843100233B1
:103A1000C5E70123224639463046C0470130E6D08B
:103A200009F10109D8E700002DE9F04301F1430C49
:103A30000C46097E85B06E291746064698460C9AB4
:103A400000F0B38022D8632936D00AD8002900F0CC
:103A5000B980582900F0838004F1420584F84210AF
:103A600032E0642901D06929F6D12068136805067F
:103A700003F104012AD51B681160002B03DA2D2203
:103A80005B4284F843206F480A2239E0732900F032
:103A90009D8008D86F2920D07029DDD1236843F09C
:103AA0002003236003E0752917D07829D4D1782327
:103AB00084F84530644855E01368191D1B6811608F
:103AC00004F1420584F8423001238CE01B68116048
:103AD00010F0400F18BF1BB2CFE713682568181D00
:103AE0001060280601D51B6802E06806FBD51B881C
:103AF00054486F2914BF0A220822002184F8431079
:103B00006568A560002DC0F29580216821F0040150
:103B10002160002B3DD1002D40F08E806546082AA3
:103B20000BD12368DB0708D5236962689A42DEBFA0
:103B3000302305F8013C05F1FF35ACEB05032361AB
:103B4000CDF800803B4603AA21463046FFF7F6FE3B
:103B500001304DD14FF0FF3005B0BDE8F08339485A
:103B600084F84510136821681D1D1B6815600A063E
:103B70000BD5CA0744BF41F0200121601BB9226860
:103B800022F0200222601022B7E74D0648BF9BB208
:103B9000EFE76546B3FBF2F102FB1133C35C05F8B6
:103BA000013D0B460029F5D1B9E713682568616925
:103BB000181D106028061B6801D5196002E06A060E
:103BC000FBD51980002323616546B9E71368191DE9
:103BD00011601D68626800212846FCF7C1FC08B12D
:103BE000401B606063682361002384F84330A7E7CB
:103BF00023692A4639463046C0470130AAD0236897
:103C00009B0713D4E068039B9842B8BF1846A3E70C
:103C100001234A4639463046C04701309AD0013523
:103C2000E368039A9B1AAB42F2DCEBE7002504F150
:103C30001909F5E7002BACD1037884F8423004F180
:103C400042056CE76C5E00087D5E00080EB400B5AE
:103C50009CB01DAB029006906FF00041094807919F
:103C60000491094953F8042B05910068019302A9B6
:103C700001F08AFA029B00221A701CB05DF804EB76
:103C800003B070470C0000200802FFFF0EB430B5EF
:103C90009CB01FAC4FF4017254F8045BADF81420D3
:103CA00002900690FCF750FC0B4B039007900B938F
:103CB0000A48019400230F9314934FF6FF73ADF855
:103CC00016302A46234602A9006801F0AFFB1CB05B
:103CD000BDE8304003B07047E13C00080C00002014
:103CE000002070472DE9F74F03690C69A342804615
:103CF000C0F28280013C01F114074FEA840C00F10C
:103D0000140657F8245056F8240006EB0C0301352E
:103D100007EB0C090193B0FBF5F595B34FF0000AE2
:103D20003846B646D34650F8042B93B205FB03A39E
:103D30004FEA134A9BB2ABEB0303120CDEF800B060
:103D400005FB02A213FA8BF34FEA124A1FFA82FB19
:103D5000DEF80020CBEB124202EB23429BB243EA97
:103D6000024381454FEA224B4EF8043BDBD256F822
:103D70000C3033B9019B043B9E421A4630D3C8F83D
:103D80001040404601F02AF8002825DB0135304676
:103D90004FF0000C57F8042BD0F800E093B2ACEBD6
:103DA0000303120C13FA8EF3C2EB1E4202EB234202
:103DB0009BB243EA0243B9454FEA224C40F8043B28
:103DC000E8D256F8242006EB84032AB9043B9E422D
:103DD0001A460BD3C8F81040284603B0BDE8F08F50
:103DE0001268043B002ACAD1013CC5E71268043BB3
:103DF000002AEFD1013CEAE70020EEE700000000D6
:103E00002DE9F04F57EC106B97B0456A06910446C8
:103E10000B921293DDF88080CDE900673DB9102048
:103E200000F0B4FD6062C0E901550560C560636AD9
:103E3000196851B15A684A60012393408B6020464B
:103E400000F0EBFD636A00221A603B1EBBBF23F04B
:103E50000043019300230122ACBFC8F80030C8F82A
:103E60000020AF4BDDF8048033EA080314D1129A26
:103E700042F20F731360009B23B9C8F313000028AC
:103E800000F04285219BDFF8ACB2002B00F04485A6
:103E90000BF1030300F03EBDDDE9006700220023C3
:103EA00030463946FCF714FE814668B1129A012368
:103EB0001360219B002B00F024859A4B219A03F17B
:103EC000FF3B136000F028BD14AA15A947EC106B46
:103ED000204600F0FAFFC8F30A550490002D7CD06C
:103EE000C7F3130343F07F5BB2464BF4401BA5F2CC
:103EF000FF35CDF84C9000228B4B50465946FCF7CD
:103F00006BF981A3D3E90023FCF77AFB80A3D3E903
:103F10000023FCF763F9064628460F46FCF7AAFA89
:103F20007DA3D3E90023FCF76BFB02460B4630462A
:103F30003946FCF753F906460F46FCF711FE0022FE
:103F40008246002330463946FCF7CCFD48B1504646
:103F5000FCF790FA32463B46FCF7BAFD08B90AF185
:103F6000FF3ABAF1160F59D8704901EBCA01DDE9E1
:103F70000023D1E90001FCF7D3FD002850D00AF15D
:103F8000FF3A00230F93149B5D1BB5F1010849BF55
:103F9000C5F10103002305934FF0000858BF0593B6
:103FA000BAF1000F3EDB0023D044CDF838A00793D0
:103FB000069B092B00F29080052BC4BF043B06939F
:103FC000069BA3F10203CCBF00250125032B00F2C1
:103FD0008F80DFE803F07D7F3171DDE914531D44EC
:103FE00005F23240202813DDC0F14000009B08FAA2
:103FF00000F805F2124023FA00F048EA0000FCF74E
:1040000029FA01238246A1F1F87B013D139372E75F
:10401000009BC0F1200003FA00F0F0E70123B1E7B4
:104020000F90B0E7059BA3EB0A030593CAF10003C9
:10403000079300230E93BBE701230A930B9B002BEE
:1040400059DD02939946666A00227260042202F1E9
:1040500014009842716853D9204600F0AAFC636AA4
:104060003060B9F10E0FD3F800B000F2E680002DF9
:1040700000F0E3809DED007BBAF1000F8DED107B29
:1040800074DD2A4A0AF00F0302EBC30393ED007BB1
:104090004FEA2A16F0068DED087B65D5244BDDE945
:1040A0001001D3E90823FCF7D5FBCDE9000106F0A8
:1040B0000F0603251E4F4CE001230A930B9B53442C
:1040C00003F1010902934B46012BB8BF0123BAE764
:1040D0000023B2E70023F0E70125002306930A95A9
:1040E0004FF0FF3302939946002212230B92AAE766
:1040F00001230A93F4E70123029399461A46F5E750
:10410000013171605200A2E761436F63A787D23F1C
:10411000B3C8608B288AC63FFB799F501344D33FB6
:104120000000F07FC45F00080000F83FC85E000890
:10413000A05E0008975E0008F10708D5DDE90801D8
:10414000D7E90023FCF75CFACDE9080101357610C8
:104150000837002EF0D1DDE90823DDE90001FCF786
:1041600079FBCDE900011AE00225A3E700F0A08069
:10417000CAF100069F4BA04F06F00F0203EBC203EB
:10418000D3E90023DDE91001FCF73AFACDE900019B
:10419000361100230225002E7FD1002BE1D10F9B89
:1041A000002B00F08780DDE900670022934B30464A
:1041B0003946FCF797FC00287CD0B9F1000F79D084
:1041C000029B002B35DD0AF1FF33089339460022AC
:1041D0008B4B3046FCF714FACDE90001029F013504
:1041E0002846FCF747F9DDE90023FCF709FA00222D
:1041F000844BFBF7F3FF0546A1F15076002F5DD10C
:104200000022814BDDE90001FBF7E6FF2A46334639
:10421000CDE90001FCF784FC002840F088822A46A2
:1042200006F10043DDE90001FCF75CFC002840F0EA
:104230007C82DDE91023CDE90023159B002BC0F221
:104240005081BAF10E0F00F34C816A4B03EBCA03A5
:1042500093ED007B0B9B002B8DED027B80F2D880D1
:10426000B9F1000F00F3D48040F05E820022664B6B
:1042700051EC170BFCF7C4F9DDE90023FCF746FC11
:104280004F464E46002840F0348231230BF10105A1
:104290008BF800300AF1010A2FE2F20705D5D7E9C1
:1042A0000023FCF7ADF9013501237610083772E7DA
:1042B000022574E7CDF820A04F4691E74D4B03EB64
:1042C000C70353E902010A9B002B47D002460B4665
:1042D00000204E49FCF7BEFA2A463346FBF77CFF26
:1042E000CDE90C015D46DDE90001FCF739FC06462D
:1042F000FCF7C0F802460B46DDE90001FBF76CFF56
:10430000303605F8016BDDE90C23CDE90001FCF73F
:10431000E9FB002863D1DDE9002300203749FBF7E2
:104320005BFFDDE90C23FCF7DDFB002840F0B780E4
:10433000A5EB0B039F427FF77CAF0022304BDDE9FA
:104340000C01FCF75DF90022CDE90C012C4BDDE9F5
:104350000001FCF755F9CDE90001C4E72A463346D0
:10436000FCF74EF9CDE90C010BEB07055E46DDE9E4
:104370000001FCF7F5FB0746FCF77CF830370246F6
:104380000B46DDE90001FBF727FF06F8017BAE4293
:10439000CDE900014FF0000226D11C4BDDE90C01F4
:1043A000FBF71CFF02460B46DDE90001FCF7B8FBFA
:1043B000002874D1DDE90C2300201449FBF70CFF21
:1043C00002460B46DDE90001FCF78CFB00283FF4B8
:1043D00030AF15F8013C302B05F1FF3202D0DDF88B
:1043E00020A04AE01546F4E7054BFCF709F9CDE9B2
:1043F0000001BCE7C85E0008A05E00080000F03FB6
:104400000000244000001C40000014400000E03F79
:10441000DDE900675D46DDE9022330463946FCF7F9
:1044200019FAFCF79DFB8046FCF724F8DDE902232E
:10443000FCF7E6F802460B463046394608F13006EE
:10444000FBF7CAFE05F8016BA5EB0B06B14502466A
:104450000B4639D1FBF7C2FEDDE9022306460F46C3
:10446000FCF75EFBC8B9DDE9022330463946FCF7AC
:104470002FFB10B118F0010F0FD10499204600F066
:10448000CCFA0023129A2B700AF101031360219BCE
:10449000002B00F041821D603EE2CDF820A015F80F
:1044A000012C392A05F1FF3308D19B450AD1089B1D
:1044B0000133089330238BF800305B461A780132C1
:1044C0001A708CE71D46EAE700229B4BFCF798F830
:1044D0000022002306460F46FCF7FAFA00289AD07D
:1044E000CBE70A9A002A00F08B80069A012A6EDC3C
:1044F000139A002A67D003F23343079F059D059A5C
:1045000001211A4420460592984400F026FB0646F5
:10451000002D0CDDB8F1000F09DD4545059A2B464D
:10452000A8BF4346D21A0592ED1AA8EB0308079BD1
:10453000EBB10A9B002B67D08FB131463A4620463B
:1045400000F0AAFB049A01460646204600F00EFB46
:1045500004990890204600F060FA089B0493079B9A
:10456000DA1B04D00499204600F096FB0490012148
:10457000204600F0F2FA0E9B0746002B00F0D08197
:104580001A460146204600F087FB069B012B074692
:1045900040DC009B002B39D1019BC3F31303002B9C
:1045A00036D1019B23F000431B0D1B052BB1059B4E
:1045B0000133059308F10108012307930E9B002B9B
:1045C0002AD1012030E0149BC3F1360395E7079B05
:1045D00009F1FF37BB42BFBF079B0797FA1A0E9B33
:1045E000BBBF9B180E93DF1B0027B9F1000FB5BFAF
:1045F000059B059DA3EB09054B46B8BF00237EE74D
:10460000079F059D0A9E83E7079AABE70023D4E73F
:10461000009BD2E7002307933B6907EB83031869EC
:1046200000F04DFAC0F12000404410F01F0047D0C8
:10463000C0F12003042B3BDD059BC0F11C000344AB
:10464000059305448044059B002B05DD1A4604991B
:10465000204600F06FFB0490B8F1000F05DD3946ED
:104660004246204600F066FB07460F9B53B339468F
:10467000049800F0B3FB002824DA00230A220499EE
:10468000204600F0E1F90A9B04900AF1FF3A002B62
:1046900000F04D81002331460A22204600F0D4F973
:1046A000029B002B06464FDC069B022B4CDD11E0E3
:1046B000C9D0059A1C331A4405921D449844C2E798
:1046C0000346F6E7B9F1000F38DC069B022B35DD17
:1046D000CDF80890029B63B939460522204600F0C8
:1046E000B3F901460746049800F078FB00283FF72D
:1046F000CCAD0B9B5D466FEA030A4FF000093946CB
:10470000204600F08AF9002E3FF4B7AEB9F1000F51
:1047100005D0B14503D04946204600F07EF9314628
:10472000204600F07AF9A8E600273E46E1E7DDF8EA
:1047300020A03E46A9E500BF000024400A9BCDF81A
:104740000890002B00F0FA80002D05DD31462A4646
:10475000204600F0EFFA0646079B002B4CD071680C
:10476000204600F026F9326902320546920006F131
:104770000C010C3000F012F901222946204600F00D
:10478000D9FA009BCDF814B003F00103B1460793AA
:10479000064639460498FFF7A5FA4946054600F152
:1047A0003008049800F01AFB324600903946204643
:1047B00000F02EFBC368024603BB01460890049834
:1047C00000F00CFB089A034611462046089300F0BF
:1047D00024F9089BA3B9069A92B9079A82B9B8F14D
:1047E000390F29D0009B002B01DD05F13108059B15
:1047F0005D1C83F8008082E73046C2E70123E3E7CF
:10480000009A002A04DB25D1069A1ABB079A0ABB34
:10481000002BECDD01220499204600F08BFA39468A
:10482000049000F0DBFA002803DCE0D118F0010F5F
:10483000DDD0B8F1390FD8D1059B059A5D1C39231D
:10484000137015F8013C392B05F1FF324FD00133BD
:10485000137054E7059A002B02F1010506DDB8F14B
:10486000390FE9D008F10108059BC2E7029A05F863
:10487000018CA5EB0B03934221D000230A2204995B
:10488000204600F0E1F8B14504904FF000034FF0EE
:104890000A024946204605D100F0D6F88146064670
:1048A000059576E700F0D0F83146814600230A22CC
:1048B000204600F0C9F80646F2E74FF00009012251
:1048C0000499204600F036FA3946049000F086FA42
:1048D0000028B6DC02D118F0010FB2D115F8013C66
:1048E000302B05F1FF327FF40AAF1546F6E793450A
:1048F00005D131230AF1010A8BF80030FFE6154695
:104900009FE7DFF864B007E0219BDFF860B01BB1E0
:104910000BF10803219A1360584617B0BDE8F08FD9
:10492000069B012B7FF735AE0E9B079349E6029B52
:10493000002B03DC069B022B3FF7CCAE5D463946CD
:104940000498FFF7CFF900F1300805F8018B029ABF
:10495000A5EB0B039A42B0DD00230A2204992046FE
:1049600000F072F80490EAE7C35F00088E5E00086A
:10497000044B1B68186A044B002808BF1846F03027
:10498000704700BF0C00002070000020024B014661
:10499000186800F045BB00BF0C00002010B5431E96
:1049A0000A44914200D110BD11F8014B03F8014FA8
:1049B000F7E770B5456A04460E463DB91020FFF78B
:1049C000E5FF6062C0E901550560C560656AEB6896
:1049D00083B1636ADB6853F82600B8B9012101FA94
:1049E00006F56A1D9200204600F0BEFA60B1C0E9EB
:1049F00001650EE021220421204600F0B5FA636A29
:104A0000E860DB68002BE4D1002070BD026843F849
:104A100026200023C0E90333F7E770B5446A064651
:104A20000D463CB91020FFF7B1FF7062C0E90144A8
:104A30000460C4603DB1736A6A68DB6853F8221091
:104A4000296043F8225070BD2DE9F0410D691F46E1
:104A500006460C4601F1140C0023DCF8000081B27C
:104A600002FB01710F0C000C02FB007089B20133D4
:104A700001EB00419D424FEA10474CF8041BECDC6F
:104A8000D7B1A368AB4212DC616830460131FFF751
:104A900090FF2269023204F10C01804692000C3032
:104AA000FFF77CFF21463046FFF7B7FF444604EB93
:104AB000850301355F6125612046BDE8F081020C68
:104AC00012040346B2B90304102013F07F4F04BF51
:104AD0001B02083013F0704F04BF1B01043013F0A9
:104AE000404F04BF9B000230002B06DB5B0003D568
:104AF000013070470020E8E720207047036813F07A
:104B0000070201460BD0DA0723D4980749BF5B0898
:104B10009B0801200B605CBF0B600220704798B2BD
:104B2000A8B91B0C102013F0FF0F04BF1B0A08309C
:104B30001A0704BF1B0904309A0704BF9B08023000
:104B4000DA0702D45B0806D001300B6070471046CC
:104B5000E9E7002070472020704710B50C4601217E
:104B6000FFF727FF01224461026110BD2DE9F74FD5
:104B700014460A6923699A42B8BF0B468846BCBFEF
:104B8000A0461C46D8F81070D4F81090D8F8083019
:104B9000D8F8041007EB0906B342B8BF0131FFF79C
:104BA00008FF00F1140505EB860E2B460022734525
:104BB00016D304F1140208F1140102EB890301EB8E
:104BC00087070093009B019293420CD8002E03DDCF
:104BD0005EF8043D002B5DD0066103B0BDE8F08FA8
:104BE00043F8042BE3E7B2F800B0BBF1000F23D089
:104BF0008946AC464FF0000859F8044BDCF800A099
:104C0000A3B21FFA8AFA0BFB03A34FEA144ADCF89B
:104C1000004043444FEA14480BFB0A8404EB13445E
:104C2000E2469BB243EA04434F454FEA14484AF830
:104C3000043B2BD8CCF80480019BB3F802A00432CB
:104C4000BAF1000F20D02B688946A8464FF0000B20
:104C5000B9F800C0B8F802400AFB0C445C44C446F2
:104C60009BB243EA04434CF8043B59F8043BB8F8C0
:104C700004B01B0C0AFB03B303EB14434F454FEA8C
:104C8000134B05D8C8F8043004359BE7D446B3E786
:104C9000E046DDE7013E99E72DE9F843154612F0BD
:104CA000030206460F4607D0013A214C002354F870
:104CB0002220FFF7C9FE0746AD1035D0746A3CB913
:104CC0001020FFF763FE7062C0E901440460C46015
:104CD000D6F82480D8F808404CB940F2712130460B
:104CE000FFF73BFF0023C8F80800044603604FF0BD
:104CF0000008EB070AD5394622463046FFF736FF53
:104D0000394681463046FFF788FE4F466D100BD07E
:104D1000206838B9224621463046FFF727FF206039
:104D2000C0F800800446E4E73846BDE8F88300BFD9
:104D3000905F00082DE9F0470C464FEA621A23699C
:104D400049680AEB0309A3680746164609F10105FD
:104D5000AB4232DB3846FFF72CFE0023804600F1E1
:104D600014011A4653452BDB20692AEAEA7A04F13A
:104D7000140316F01F0201EB8A0103EB800C25D00F
:104D8000C2F1200E00201E688A46964030434AF841
:104D9000040B53F8040B9C4520FA0EF014D848601D
:104DA00008B109F10205013D3846C8F81050214606
:104DB000FFF733FE4046BDE8F08701315B00C7E7EF
:104DC00041F823200133CDE75146DCE7043953F89D
:104DD000042B41F8042F9C45F9D8E4E703690A69DC
:104DE0009B1A30B50CD19200143014318418114440
:104DF00054F8045D51F8042D954203D005D30123E6
:104E0000184630BDA042F3D3FAE74FF0FF33F7E77F
:104E10002DE9F0470D460746114628461446FFF790
:104E2000DDFF061E08D131463846FFF7C2FD0123DB
:104E3000C0E90436BDE8F087A4BF23462C463846B7
:104E40006168A6BF1D4600260126FFF7B2FD2B694B
:104E5000C660266905F1140904F1140202EB860705
:104E600009EB830800F114054FF0000E52F804AB73
:104E700059F8044B1EFA8AF1A3B2C91A230CC3EBEA
:104E80001A4303EB214389B24FEA234EC84541EA56
:104E90000343944645F8043BE8D8BC4504D355F891
:104EA000043D83B10661C5E75CF8041B1EFA81F37B
:104EB0001A1402EB11429BB243EA02434FEA224E1C
:104EC00045F8043BE9E7013EE9E72DE9F7430E46E3
:104ED000012159EC108B1546FFF76BFDC9F30A54FD
:104EE0000746C9F3130334BB0193B8F1000327D07D
:104EF00002A840F8083DFFF701FE0099F0B1019AC1
:104F0000C0F1200302FA03F30B43C2407B6101921C
:104F1000019BBB61002B14BF022101213961C4B187
:104F2000A4F2334404443460C0F1350028603846AC
:104F300003B0BDE8F08343F48013D5E77961E7E778
:104F400001A8FFF7DBFD019B7B6101213961203066
:104F5000E5E707EB8103A0F2324030601869FFF704
:104F6000AEFDC0EB4110E1E738B502FB01F421468C
:104F700000F056F8054618B122460021FEF701FA66
:104F8000284638BD38B50546002945D051F8043CBF
:104F90000C1F002BB8BFE41800F0C3FE1F4A1368B3
:104FA000104633B9636014602846BDE8384000F00D
:104FB000B9BEA3420CD921686218934204BF1A6893
:104FC0005B68636004BF521822600460ECE713461C
:104FD0005A680AB1A242FAD919685818A0420BD1EE
:104FE00020680144581882421960DDD11068526867
:104FF0005A6001441960D7E702D90C232B60D3E72C
:10500000206821188A4204BF11685268626004BF98
:10501000091821605C60C7E738BD00BF100200209E
:1050200070B5CD1C25F0030508350C2D38BF0C25B7
:10503000002D064601DBA94203D90C233360002072
:1050400070BD00F06EFE214A1468214691B9204CD3
:1050500023681BB9304600F091FC20602946304699
:1050600000F08CFC431C24D10C233360304600F04C
:1050700059FEE4E70B685B1B18D40B2B0FD90B60B0
:10508000CD50CC18304600F04DFE04F10B00231D2E
:1050900020F00700C31AD3D05A42E250D0E78C4226
:1050A0004B6816BF636013600C46EBE70C4649681B
:1050B000CCE7C41C24F00304A04205D0211A3046DA
:1050C00000F05CFC0130CFD02560DBE7100200204F
:1050D000140200202DE9F0478E689E4282460C465D
:1050E0009046994637D88A8912F4906F31D0256856
:1050F00009696F1A6569022305EB450595FBF3F510
:1051000009F101033B449D4238BF1D46530530D58C
:105110002946FFF785FF064650B90C23CAF8003030
:10512000A38943F04003A3814FF0FF30BDE8F0872F
:105130003A462169FFF732FCA38923F4906343F0D8
:105140008003A381266165613E44ED1B2660A56056
:105150004E464E4500D94E4632464146206800F044
:10516000C7FDA3689B1BA36023681E442660002024
:10517000DCE72A4600F0D7FD06460028E2D1216987
:105180005046FFF7FFFEC8E72DE9F04F1D468B891B
:105190001F069DB080460C4616460FD50B696BB9AD
:1051A0004021FFF73DFF2060206128B90C23C8F89B
:1051B00000304FF0FF30C8E04023636100230993C3
:1051C00020238DF8293030238DF82A3003954FF0B5
:1051D000010B37463D4615F8013B0BB1252B3ED15F
:1051E000B7EB060A0BD05346324621464046FFF73E
:1051F00071FF013000F0A480099B534409933B7870
:10520000002B00F09D8000234FF0FF32CDE90523F5
:10521000049307938DF853301A932F46052217F8FD
:10522000011B5048FBF79CF9049BD0B9D90644BF39
:1052300020228DF853201A0744BF2B228DF85320CB
:105240002A782A2A15D0079A2F4600200A2539469F
:1052500011F8013B303B092B4DD9B8B10FE02F4677
:10526000B8E7404A801A0BFA00F0184304903D4614
:10527000D3E7039A111D12680391002A01DB0792FC
:1052800004E0524243F00203079204933B782E2B32
:105290000CD17B782A2B33D1039B1A1D1B680392F8
:1052A000002BB8BF4FF0FF33023705932E4D3978EE
:1052B00003222846FBF754F938B14023401B03FA78
:1052C00000F0049B034301370493397827488DF895
:1052D000281006227E1CFBF743F9002838D0244B07
:1052E00013BB039B073323F0070308330393099B86
:1052F0004B4409936DE705FB023201200F46A6E7F8
:1053000000230137059319460A25384610F8012B6A
:10531000303A092A03D9002BC8D00591C6E705FB0E
:10532000012101230746F0E703AB00932246114B0E
:1053300004A94046FEF7C2F8B0F1FF3F8146D6D13E
:10534000A3895B063FF535AF09981DB0BDE8F08F26
:1053500003AB00932246074B04A94046FEF764FBCB
:10536000EAE700BF9C5F0008A25F0008A65F000894
:10537000BD340008D550000838B54B1C144603D185
:105380004FF0FF35284638BD938923F020039381E1
:10539000636B5268CDB28BB1A36B934208DD236877
:1053A0005A1E226003F8015C636801336360E9E719
:1053B000214600F03FFC0028F1D0E1E72169236895
:1053C00051B1994208D213F8011CA94204D1013B02
:1053D000013223606260D5E7C4E90F3204F144036F
:1053E00063630323A363234603F8465F236001231B
:1053F000DCE710B50C46496B69B104F144039942EE
:1054000001D0FFF7BFFD236C63600020606313B120
:10541000E36B236010BD2369236000236360A389CD
:1054200043F02003A3814FF0FF30F3E72DE9F04F65
:10543000ADF5237D0C460021449145919F49A091F3
:105440000DF104089E49DFF87C92CDF818810646DC
:105450009246A19100930A279AF80030002B00F0A1
:105460002A81554600F024FC15F801BB58444378C6
:1054700013F008031CD06368002B12DD00F018FC49
:1054800023681A7810444278120701D4AA46E3E749
:10549000459A0132459262680133013A62602360A5
:1054A000E9E7A19B2146304698470028E6D0EDE782
:1054B000BBF1250F40F08280439341939AF801306D
:1054C0002A2B03D1102341930AF10205AA4615F8AD
:1054D000011BA1F13002092A22D903227948FBF7E6
:1054E0003FF838B1A0EB090301209840419B1843D5
:1054F0004190AA469AF80030672B0AF101052BD893
:10550000652B80F09F80472B10D8452B80F09A8028
:10551000002B6CD0252B51D003234793429727E0D3
:10552000439B07FB0313303B4393CFE75B2B6AD0CE
:105530000CD8582BF0D1419A42F4007241921022BB
:1055400042926E2B8CBF0423032310E0632B65D0A3
:10555000642BE1D14297F4E7702B4BD026D86E2B09
:1055600062D04CD8692BD7D10023429303234793B1
:105570006368002B68DD419B590607D400F098FB57
:1055800023681A7810444278120764D4479B022B90
:1055900073DC6B46224641A9304600F097F801289B
:1055A00000F0898002287FF471AF1DE0752BD1D007
:1055B000782BC0D0732BAFD10223D8E76368002BC0
:1055C0000CDD23681A785A4575D10133626823606F
:1055D000459B013A01336260459357E7A19B214601
:1055E000304698470028ECD04498002859D14FF015
:1055F000FF305CE0419A42F0200241929BE7082391
:1056000042930423B3E72946404600F0C7F9419B83
:1056100043F04003419305460123A8E7419B43F033
:10562000400341930023A2E74198C3063FF52EAF04
:10563000009B459A191D00911B68C0074CBF1A803A
:105640001A6023E7052392E7A19B2146304698473D
:10565000002890D0C8E7459A013245926268013A25
:10566000002A626002DD0133236087E7A19B2146A7
:1056700030469847002881D0B6E7042B06DC6B46FD
:10568000224641A9304600F085F888E70E4B002BF2
:105690003FF4FCAE6B46224641A93046AFF3008092
:1056A0007DE7A38913F0400F18BF4FF0FF300DF5D1
:1056B000237DBDE8F08F4498F9E700BF79530008D7
:1056C000F3530008A25F0008000000002DE9F0413C
:1056D00015468A6880460C4632B98A69002A14BF8A
:1056E0004FF0FF3201228A602268D1065FBF1A683C
:1056F000111D196017680026A369DBB1012B07D1C2
:105700002B6862691B78D35CA3B9002E32D106E006
:10571000022B07D0002E2DD1A369012B2AD1012005
:10572000BDE8F08100F0C4FA2B681B781844437878
:105730001B07EFD42368DA065EBF2B681B783B702B
:105740002A686B6802F101022A60A26803F1FF3344
:1057500002F1FF326B6006F1010658BF0137A2600B
:1057600042B1002BC8DCD4F8803129464046984726
:105770000028C1D0236813F0100305D1E26801327C
:10578000E260A26902B13B7023691E4426610020D9
:10579000C6E700002DE9F04F9A46744B0C4683464D
:1057A000164693E8070087B003ABA76883E80700B5
:1057B0006F4BA1696F4A032908BF1A467B1EB3F5D8
:1057C000AE7F84BF40F25D13A3602368009243F470
:1057D000506388BF6FF4AE7504F11C0923608CBF61
:1057E0007F1900274B464FF000080193316803AB47
:1057F000022253F828000978FAF7B2FE019B30B371
:10580000B8F1010F5AD162682AB92268082142F41E
:10581000007261602260226822F4A0622260A268A5
:10582000511EA1609AB13268511C316012781A7011
:105830005D1C7368013B002B736007DCD4F880317A
:10584000314658469847002840F086802B4608F19C
:105850000108B8F1030FC8D162680AB90A22626070
:105860006268454960690193891A00F097F8019BC5
:105870004FF000081D46A3682268002B3AD031681B
:10588000606991F800C010F80C00002832D0BCF11B
:10589000300F21D110051FD508F1010817B10133D0
:1058A000013FA3607368013B002B73601BDD33680D
:1058B00001333360A368013BA360DCE7B8F1020F5A
:1058C000ADD1226802F4C061B1F5007FBFD11021D3
:1058D000616042F48072A1E722F4106222600B78CA
:1058E0002B700135DEE7D4F88031314658469847B1
:1058F0000028DFD02368D9050CD54D4508D915F807
:10590000011CD4F87C313246584698476F1E3D46FC
:105910004D4529D0226812F0100213D12A70636815
:10592000009E49465846B047DAF8003021681A1DF3
:10593000CAF8002011F0200F1B6810D01860E3682F
:105940000133E360A5EB0905A844256945442561B9
:10595000002007B0BDE8F08F4FF00008CAE7CA0783
:105960004CBF18801860EAE70120F2E7F05D0008FC
:10597000F95A0008115C0008BD5F000838B5064CF4
:105980000023054608462360FDF746FC431C02D170
:10599000236803B12B6038BDBC03002070B50B78C1
:1059A0005E2B13BF4A1C8A1C4B78002108BF0121C3
:1059B000441E00F1FF0504F8011FAC42FBD113B9EE
:1059C000013A104670BD81F00104C454511C11F815
:1059D000015C2D2D01F1FF360A4606D05D2DF0D079
:1059E0000DB93246EDE72B46EFE70E785D2EFAD083
:1059F000B342F8DC01339E42C454FBDC0231E6E7DB
:105A00002DE9F0478046894692461E460F463D46A0
:105A1000089815F8014B00F047F92044437813F03B
:105A2000080332D12D2C32D17C78BD1C0122002EEE
:105A30005DD0102E09D1302C07D12B7803F0DF0375
:105A4000582B4FD16C7810260235002A14BF4FF026
:105A500000416FF000410027B1FBF6FC384606FB21
:105A60001C1EA4F13003092B17D81C46A64223DDC7
:105A70007B1C07D084451CD301D1A64519DB00FB54
:105A80000640012715F8014BEBE72F46BFE72B2C0B
:105A900004BFBD1C7C781A46C9E7A4F14103192B49
:105AA00001D8373CE2E7A4F16103192B04D8573C35
:105AB000DCE74FF0FF37E5E77B1C08D12223C8F86D
:105AC00000300846BAF1000F07D1BDE8F08702B1F7
:105AD0004042BAF1000FF8D00FB105F1FF39CAF812
